{
  "_format": "hh-sol-artifact-1",
  "contractName": "EventManager",
  "sourceName": "contracts/EventManager.sol",
  "abi": [
    {
      "inputs": [
        {
          "internalType": "address",
          "name": "_ticketNFTAddress",
          "type": "address"
        }
      ],
      "stateMutability": "nonpayable",
      "type": "constructor"
    },
    {
      "anonymous": false,
      "inputs": [
        {
          "indexed": true,
          "internalType": "uint256",
          "name": "eventId",
          "type": "uint256"
        },
        {
          "indexed": false,
          "internalType": "string",
          "name": "name",
          "type": "string"
        },
        {
          "indexed": true,
          "internalType": "address",
          "name": "organizer",
          "type": "address"
        },
        {
          "indexed": false,
          "internalType": "uint256",
          "name": "ticketPrice",
          "type": "uint256"
        },
        {
          "indexed": false,
          "internalType": "uint256",
          "name": "totalTickets",
          "type": "uint256"
        }
      ],
      "name": "EventCreated",
      "type": "event"
    },
    {
      "anonymous": false,
      "inputs": [
        {
          "indexed": true,
          "internalType": "uint256",
          "name": "tokenId",
          "type": "uint256"
        },
        {
          "indexed": true,
          "internalType": "address",
          "name": "seller",
          "type": "address"
        },
        {
          "indexed": false,
          "internalType": "uint256",
          "name": "price",
          "type": "uint256"
        }
      ],
      "name": "TicketListed",
      "type": "event"
    },
    {
      "anonymous": false,
      "inputs": [
        {
          "indexed": true,
          "internalType": "uint256",
          "name": "eventId",
          "type": "uint256"
        },
        {
          "indexed": true,
          "internalType": "uint256",
          "name": "tokenId",
          "type": "uint256"
        },
        {
          "indexed": true,
          "internalType": "address",
          "name": "buyer",
          "type": "address"
        },
        {
          "indexed": false,
          "internalType": "string",
          "name": "metadataURI",
          "type": "string"
        }
      ],
      "name": "TicketPurchased",
      "type": "event"
    },
    {
      "anonymous": false,
      "inputs": [
        {
          "indexed": true,
          "internalType": "uint256",
          "name": "tokenId",
          "type": "uint256"
        },
        {
          "indexed": true,
          "internalType": "address",
          "name": "newOwner",
          "type": "address"
        },
        {
          "indexed": false,
          "internalType": "uint256",
          "name": "price",
          "type": "uint256"
        }
      ],
      "name": "TicketResold",
      "type": "event"
    },
    {
      "inputs": [
        {
          "internalType": "uint256",
          "name": "tokenId",
          "type": "uint256"
        }
      ],
      "name": "buyResaleTicket",
      "outputs": [],
      "stateMutability": "payable",
      "type": "function"
    },
    {
      "inputs": [
        {
          "internalType": "uint256",
          "name": "eventId",
          "type": "uint256"
        }
      ],
      "name": "buyTicket",
      "outputs": [],
      "stateMutability": "payable",
      "type": "function"
    },
    {
      "inputs": [
        {
          "internalType": "string",
          "name": "name",
          "type": "string"
        },
        {
          "internalType": "uint256",
          "name": "ticketPrice",
          "type": "uint256"
        },
        {
          "internalType": "uint256",
          "name": "totalTickets",
          "type": "uint256"
        }
      ],
      "name": "createEvent",
      "outputs": [
        {
          "internalType": "uint256",
          "name": "",
          "type": "uint256"
        }
      ],
      "stateMutability": "nonpayable",
      "type": "function"
    },
    {
      "inputs": [
        {
          "internalType": "uint256",
          "name": "",
          "type": "uint256"
        }
      ],
      "name": "events",
      "outputs": [
        {
          "internalType": "uint256",
          "name": "eventId",
          "type": "uint256"
        },
        {
          "internalType": "string",
          "name": "name",
          "type": "string"
        },
        {
          "internalType": "address",
          "name": "organizer",
          "type": "address"
        },
        {
          "internalType": "uint256",
          "name": "ticketPrice",
          "type": "uint256"
        },
        {
          "internalType": "uint256",
          "name": "totalTickets",
          "type": "uint256"
        },
        {
          "internalType": "uint256",
          "name": "soldTickets",
          "type": "uint256"
        }
      ],
      "stateMutability": "view",
      "type": "function"
    },
    {
      "inputs": [
        {
          "internalType": "uint256",
          "name": "eventId",
          "type": "uint256"
        }
      ],
      "name": "getEventDetails",
      "outputs": [
        {
          "components": [
            {
              "internalType": "uint256",
              "name": "eventId",
              "type": "uint256"
            },
            {
              "internalType": "string",
              "name": "name",
              "type": "string"
            },
            {
              "internalType": "address",
              "name": "organizer",
              "type": "address"
            },
            {
              "internalType": "uint256",
              "name": "ticketPrice",
              "type": "uint256"
            },
            {
              "internalType": "uint256",
              "name": "totalTickets",
              "type": "uint256"
            },
            {
              "internalType": "uint256",
              "name": "soldTickets",
              "type": "uint256"
            }
          ],
          "internalType": "struct EventManager.Event",
          "name": "",
          "type": "tuple"
        }
      ],
      "stateMutability": "view",
      "type": "function"
    },
    {
      "inputs": [],
      "name": "getNextEventId",
      "outputs": [
        {
          "internalType": "uint256",
          "name": "",
          "type": "uint256"
        }
      ],
      "stateMutability": "view",
      "type": "function"
    },
    {
      "inputs": [
        {
          "internalType": "uint256",
          "name": "tokenId",
          "type": "uint256"
        }
      ],
      "name": "getResaleListing",
      "outputs": [
        {
          "components": [
            {
              "internalType": "uint256",
              "name": "tokenId",
              "type": "uint256"
            },
            {
              "internalType": "address",
              "name": "seller",
              "type": "address"
            },
            {
              "internalType": "uint256",
              "name": "price",
              "type": "uint256"
            },
            {
              "internalType": "bool",
              "name": "active",
              "type": "bool"
            }
          ],
          "internalType": "struct EventManager.TicketListing",
          "name": "",
          "type": "tuple"
        }
      ],
      "stateMutability": "view",
      "type": "function"
    },
    {
      "inputs": [
        {
          "internalType": "uint256",
          "name": "tokenId",
          "type": "uint256"
        },
        {
          "internalType": "uint256",
          "name": "price",
          "type": "uint256"
        }
      ],
      "name": "listTicketForResale",
      "outputs": [],
      "stateMutability": "nonpayable",
      "type": "function"
    },
    {
      "inputs": [
        {
          "internalType": "uint256",
          "name": "",
          "type": "uint256"
        }
      ],
      "name": "resaleListings",
      "outputs": [
        {
          "internalType": "uint256",
          "name": "tokenId",
          "type": "uint256"
        },
        {
          "internalType": "address",
          "name": "seller",
          "type": "address"
        },
        {
          "internalType": "uint256",
          "name": "price",
          "type": "uint256"
        },
        {
          "internalType": "bool",
          "name": "active",
          "type": "bool"
        }
      ],
      "stateMutability": "view",
      "type": "function"
    },
    {
      "inputs": [],
      "name": "ticketNFT",
      "outputs": [
        {
          "internalType": "contract TicketNFT",
          "name": "",
          "type": "address"
        }
      ],
      "stateMutability": "view",
      "type": "function"
    },
    {
      "inputs": [
        {
          "internalType": "uint256",
          "name": "",
          "type": "uint256"
        }
      ],
      "name": "ticketToEventMap",
      "outputs": [
        {
          "internalType": "uint256",
          "name": "",
          "type": "uint256"
        }
      ],
      "stateMutability": "view",
      "type": "function"
    }
  ],
  "bytecode": "0x608060405234801561001057600080fd5b5060405161144338038061144383398101604081905261002f91610054565b600080546001600160a01b0319166001600160a01b0392909216919091179055610084565b60006020828403121561006657600080fd5b81516001600160a01b038116811461007d57600080fd5b9392505050565b6113b0806100936000396000f3fe60806040526004361061009c5760003560e01c80639df5be6e116100645780639df5be6e1461015f5780639e9580f614610174578063b393391b14610194578063b41b4bd4146101cc578063b9c9e0de14610246578063ec38d5a01461031357600080fd5b80630b791430146100a15780631d9c5d5c146100dc5780636053b0ef146100f157806367dd74ca14610111578063776b3bdc14610124575b600080fd5b3480156100ad57600080fd5b506100c16100bc366004610ea3565b610340565b6040516100d396959493929190610f02565b60405180910390f35b6100ef6100ea366004610ea3565b610408565b005b3480156100fd57600080fd5b506100ef61010c366004610f49565b6106de565b6100ef61011f366004610ea3565b61094f565b34801561013057600080fd5b5061015161013f366004610ea3565b60046020526000908152604090205481565b6040519081526020016100d3565b34801561016b57600080fd5b50600154610151565b34801561018057600080fd5b5061015161018f366004610f81565b610bee565b3480156101a057600080fd5b506000546101b4906001600160a01b031681565b6040516001600160a01b0390911681526020016100d3565b3480156101d857600080fd5b5061021c6101e7366004610ea3565b6003602081905260009182526040909120805460018201546002830154929093015490926001600160a01b0316919060ff1684565b604080519485526001600160a01b03909316602085015291830152151560608201526080016100d3565b34801561025257600080fd5b506102d5610261366004610ea3565b6040805160808101825260008082526020820181905291810182905260608101919091525060009081526003602081815260409283902083516080810185528154815260018201546001600160a01b03169281019290925260028101549382019390935291015460ff161515606082015290565b6040516100d39190815181526020808301516001600160a01b0316908201526040808301519082015260609182015115159181019190915260800190565b34801561031f57600080fd5b5061033361032e366004610ea3565b610d6f565b6040516100d39190611045565b60026020526000908152604090208054600182018054919291610362906110a7565b80601f016020809104026020016040519081016040528092919081815260200182805461038e906110a7565b80156103db5780601f106103b0576101008083540402835291602001916103db565b820191906000526020600020905b8154815290600101906020018083116103be57829003601f168201915b5050505060028301546003840154600485015460059095015493946001600160a01b039092169390925086565b60008181526003602081905260409091209081015460ff166104665760405162461bcd60e51b81526020600482015260126024820152714c697374696e67206e6f742061637469766560701b60448201526064015b60405180910390fd5b806002015434146104ae5760405162461bcd60e51b8152602060048201526012602482015271125b98dbdc9c9958dd08115512081cd95b9d60721b604482015260640161045d565b60018101546000546040516331a9108f60e11b8152600481018590526001600160a01b039283169290911690636352211e90602401602060405180830381865afa158015610500573d6000803e3d6000fd5b505050506040513d601f19601f8201168201806040525081019061052491906110e1565b6001600160a01b03161461057a5760405162461bcd60e51b815260206004820152601b60248201527f53656c6c6572206e6f206c6f6e676572206f776e7320746f6b656e0000000000604482015260640161045d565b600181015460038201805460ff19169055600054604051632142170760e11b81526001600160a01b03928316600482018190523360248301526044820186905292909116906342842e0e90606401600060405180830381600087803b1580156105e257600080fd5b505af11580156105f6573d6000803e3d6000fd5b505050506000816001600160a01b03163460405160006040518083038185875af1925050503d8060008114610647576040519150601f19603f3d011682016040523d82523d6000602084013e61064c565b606091505b50509050806106905760405162461bcd60e51b815260206004820152601060248201526f2a3930b739b332b9103330b4b632b21760811b604482015260640161045d565b336001600160a01b0316847fc40e38d52641f445f65e6b37a0df098ef6a34a66ff5d6c176b0f1209f6a0792c85600201546040516106d091815260200190565b60405180910390a350505050565b6000546040516331a9108f60e11b81526004810184905233916001600160a01b031690636352211e90602401602060405180830381865afa158015610727573d6000803e3d6000fd5b505050506040513d601f19601f8201168201806040525081019061074b91906110e1565b6001600160a01b03161461078d5760405162461bcd60e51b81526020600482015260096024820152682737ba1037bbb732b960b91b604482015260640161045d565b600081116107d15760405162461bcd60e51b815260206004820152601160248201527005072696365206d757374206265203e203607c1b604482015260640161045d565b60005460405163020604bf60e21b81526004810184905230916001600160a01b03169063081812fc90602401602060405180830381865afa15801561081a573d6000803e3d6000fd5b505050506040513d601f19601f8201168201806040525081019061083e91906110e1565b6001600160a01b0316146108a55760405162461bcd60e51b815260206004820152602860248201527f4576656e744d616e61676572206e6f7420617070726f76656420666f7220746860448201526734b9903a37b5b2b760c11b606482015260840161045d565b6040805160808101825283815233602080830182815283850186815260016060860181815260008a815260038087529089902097518855935191870180546001600160a01b0319166001600160a01b039093169290921790915590516002860155519301805460ff191693151593909317909255915183815284917f22968ec3be3687b180f3544163a034b88d57b48159d9a7e9a1b610fdb2d05f80910160405180910390a35050565b6000818152600260208190526040909120908101546001600160a01b03166109b05760405162461bcd60e51b8152602060048201526014602482015273115d995b9d08191bd95cc81b9bdd08195e1a5cdd60621b604482015260640161045d565b806003015434146109f85760405162461bcd60e51b8152602060048201526012602482015271125b98dbdc9c9958dd08115512081cd95b9d60721b604482015260640161045d565b8060040154816005015410610a3a5760405162461bcd60e51b815260206004820152600860248201526714dbdb19081bdd5d60c21b604482015260640161045d565b600581018054906000610a4c83611111565b909155505060058101548154604051600092610a6f926001860192602001611138565b60408051601f1981840301815290829052600080546314e2210b60e21b8452919350916001600160a01b0390911690635388842c90610ab490339086906004016111ee565b6020604051808303816000875af1158015610ad3573d6000803e3d6000fd5b505050506040513d601f19601f82011682018060405250810190610af7919061121a565b6000818152600460205260408082208790556002860154905192935090916001600160a01b039091169034908381818185875af1925050503d8060008114610b5b576040519150601f19603f3d011682016040523d82523d6000602084013e610b60565b606091505b5050905080610ba45760405162461bcd60e51b815260206004820152601060248201526f2a3930b739b332b9103330b4b632b21760811b604482015260640161045d565b336001600160a01b031682867f55bb6e37ff0677ca223df4becab1bb97607a61b7dbff1ef52b105e63acad739b86604051610bdf9190611233565b60405180910390a45050505050565b6000808311610c335760405162461bcd60e51b815260206004820152601160248201527005072696365206d757374206265203e203607c1b604482015260640161045d565b60008211610c775760405162461bcd60e51b81526020600482015260116024820152704d7573742068617665207469636b65747360781b604482015260640161045d565b6001805460009182610c8883611111565b909155506040805160c081018252828152602080820189815233838501526060830189905260808301889052600060a084018190528581526002909252929020815181559151929350916001820190610ce19082611295565b506040828101516002830180546001600160a01b0319166001600160a01b03909216919091179055606083015160038301556080830151600483015560a09092015160059091015551339082907f81f945738beff591c3eab232e9f3265ce3f12263a2ec7acf84db8dc0fce26a2790610d5f90899089908990611355565b60405180910390a3949350505050565b610db16040518060c00160405280600081526020016060815260200160006001600160a01b031681526020016000815260200160008152602001600081525090565b600260008381526020019081526020016000206040518060c001604052908160008201548152602001600182018054610de9906110a7565b80601f0160208091040260200160405190810160405280929190818152602001828054610e15906110a7565b8015610e625780601f10610e3757610100808354040283529160200191610e62565b820191906000526020600020905b815481529060010190602001808311610e4557829003601f168201915b505050918352505060028201546001600160a01b03166020820152600382015460408201526004820154606082015260059091015460809091015292915050565b600060208284031215610eb557600080fd5b5035919050565b6000815180845260005b81811015610ee257602081850181015186830182015201610ec6565b506000602082860101526020601f19601f83011685010191505092915050565b86815260c060208201526000610f1b60c0830188610ebc565b6001600160a01b03969096166040830152506060810193909352608083019190915260a09091015292915050565b60008060408385031215610f5c57600080fd5b50508035926020909101359150565b634e487b7160e01b600052604160045260246000fd5b600080600060608486031215610f9657600080fd5b833567ffffffffffffffff80821115610fae57600080fd5b818601915086601f830112610fc257600080fd5b813581811115610fd457610fd4610f6b565b604051601f8201601f19908116603f01168101908382118183101715610ffc57610ffc610f6b565b8160405282815289602084870101111561101557600080fd5b82602086016020830137600060208483010152809750505050505060208401359150604084013590509250925092565b60208152815160208201526000602083015160c0604084015261106b60e0840182610ebc565b905060018060a01b03604085015116606084015260608401516080840152608084015160a084015260a084015160c08401528091505092915050565b600181811c908216806110bb57607f821691505b6020821081036110db57634e487b7160e01b600052602260045260246000fd5b50919050565b6000602082840312156110f357600080fd5b81516001600160a01b038116811461110a57600080fd5b9392505050565b60006001820161113157634e487b7160e01b600052601160045260246000fd5b5060010190565b6000808554611146816110a7565b6001828116801561115e5760018114611173576111a2565b60ff19841687528215158302870194506111a2565b8960005260208060002060005b858110156111995781548a820152908401908201611180565b50505082870194505b505050506a202d205469636b6574202360a81b815284600b8201526111dd602b82016c0103337b91022bb32b73a24a21609d1b8152600d0190565b938452505060209091019392505050565b6001600160a01b038316815260406020820181905260009061121290830184610ebc565b949350505050565b60006020828403121561122c57600080fd5b5051919050565b60208152600061110a6020830184610ebc565b601f82111561129057600081815260208120601f850160051c8101602086101561126d5750805b601f850160051c820191505b8181101561128c57828155600101611279565b5050505b505050565b815167ffffffffffffffff8111156112af576112af610f6b565b6112c3816112bd84546110a7565b84611246565b602080601f8311600181146112f857600084156112e05750858301515b600019600386901b1c1916600185901b17855561128c565b600085815260208120601f198616915b8281101561132757888601518255948401946001909101908401611308565b50858210156113455787850151600019600388901b60f8161c191681555b5050505050600190811b01905550565b6060815260006113686060830186610ebc565b6020830194909452506040015291905056fea2646970667358221220c4ac2fb225cd533f516eaf1540f1cb8521345554dddf03ba291184d9f9c0491064736f6c63430008140033",
  "linkReferences": {},
  "deployedLinkReferences": {}
}