{
  "_format": "hh-sol-artifact-1",
  "contractName": "TicketNFT",
  "sourceName": "contracts/TicketNFT.sol",
  "abi": [
    {
      "inputs": [
        {
          "internalType": "string",
          "name": "name",
          "type": "string"
        },
        {
          "internalType": "string",
          "name": "symbol",
          "type": "string"
        },
        {
          "internalType": "address",
          "name": "initialOwner",
          "type": "address"
        }
      ],
      "stateMutability": "nonpayable",
      "type": "constructor"
    },
    {
      "inputs": [
        {
          "internalType": "address",
          "name": "sender",
          "type": "address"
        },
        {
          "internalType": "uint256",
          "name": "tokenId",
          "type": "uint256"
        },
        {
          "internalType": "address",
          "name": "owner",
          "type": "address"
        }
      ],
      "name": "ERC721IncorrectOwner",
      "type": "error"
    },
    {
      "inputs": [
        {
          "internalType": "address",
          "name": "operator",
          "type": "address"
        },
        {
          "internalType": "uint256",
          "name": "tokenId",
          "type": "uint256"
        }
      ],
      "name": "ERC721InsufficientApproval",
      "type": "error"
    },
    {
      "inputs": [
        {
          "internalType": "address",
          "name": "approver",
          "type": "address"
        }
      ],
      "name": "ERC721InvalidApprover",
      "type": "error"
    },
    {
      "inputs": [
        {
          "internalType": "address",
          "name": "operator",
          "type": "address"
        }
      ],
      "name": "ERC721InvalidOperator",
      "type": "error"
    },
    {
      "inputs": [
        {
          "internalType": "address",
          "name": "owner",
          "type": "address"
        }
      ],
      "name": "ERC721InvalidOwner",
      "type": "error"
    },
    {
      "inputs": [
        {
          "internalType": "address",
          "name": "receiver",
          "type": "address"
        }
      ],
      "name": "ERC721InvalidReceiver",
      "type": "error"
    },
    {
      "inputs": [
        {
          "internalType": "address",
          "name": "sender",
          "type": "address"
        }
      ],
      "name": "ERC721InvalidSender",
      "type": "error"
    },
    {
      "inputs": [
        {
          "internalType": "uint256",
          "name": "tokenId",
          "type": "uint256"
        }
      ],
      "name": "ERC721NonexistentToken",
      "type": "error"
    },
    {
      "inputs": [
        {
          "internalType": "address",
          "name": "owner",
          "type": "address"
        }
      ],
      "name": "OwnableInvalidOwner",
      "type": "error"
    },
    {
      "inputs": [
        {
          "internalType": "address",
          "name": "account",
          "type": "address"
        }
      ],
      "name": "OwnableUnauthorizedAccount",
      "type": "error"
    },
    {
      "anonymous": false,
      "inputs": [
        {
          "indexed": true,
          "internalType": "address",
          "name": "owner",
          "type": "address"
        },
        {
          "indexed": true,
          "internalType": "address",
          "name": "approved",
          "type": "address"
        },
        {
          "indexed": true,
          "internalType": "uint256",
          "name": "tokenId",
          "type": "uint256"
        }
      ],
      "name": "Approval",
      "type": "event"
    },
    {
      "anonymous": false,
      "inputs": [
        {
          "indexed": true,
          "internalType": "address",
          "name": "owner",
          "type": "address"
        },
        {
          "indexed": true,
          "internalType": "address",
          "name": "operator",
          "type": "address"
        },
        {
          "indexed": false,
          "internalType": "bool",
          "name": "approved",
          "type": "bool"
        }
      ],
      "name": "ApprovalForAll",
      "type": "event"
    },
    {
      "anonymous": false,
      "inputs": [
        {
          "indexed": false,
          "internalType": "uint256",
          "name": "_fromTokenId",
          "type": "uint256"
        },
        {
          "indexed": false,
          "internalType": "uint256",
          "name": "_toTokenId",
          "type": "uint256"
        }
      ],
      "name": "BatchMetadataUpdate",
      "type": "event"
    },
    {
      "anonymous": false,
      "inputs": [
        {
          "indexed": false,
          "internalType": "uint256",
          "name": "_tokenId",
          "type": "uint256"
        }
      ],
      "name": "MetadataUpdate",
      "type": "event"
    },
    {
      "anonymous": false,
      "inputs": [
        {
          "indexed": true,
          "internalType": "address",
          "name": "previousOwner",
          "type": "address"
        },
        {
          "indexed": true,
          "internalType": "address",
          "name": "newOwner",
          "type": "address"
        }
      ],
      "name": "OwnershipTransferred",
      "type": "event"
    },
    {
      "anonymous": false,
      "inputs": [
        {
          "indexed": true,
          "internalType": "address",
          "name": "from",
          "type": "address"
        },
        {
          "indexed": true,
          "internalType": "address",
          "name": "to",
          "type": "address"
        },
        {
          "indexed": true,
          "internalType": "uint256",
          "name": "tokenId",
          "type": "uint256"
        }
      ],
      "name": "Transfer",
      "type": "event"
    },
    {
      "inputs": [
        {
          "internalType": "address",
          "name": "to",
          "type": "address"
        },
        {
          "internalType": "uint256",
          "name": "tokenId",
          "type": "uint256"
        }
      ],
      "name": "approve",
      "outputs": [],
      "stateMutability": "nonpayable",
      "type": "function"
    },
    {
      "inputs": [
        {
          "internalType": "address",
          "name": "owner",
          "type": "address"
        }
      ],
      "name": "balanceOf",
      "outputs": [
        {
          "internalType": "uint256",
          "name": "",
          "type": "uint256"
        }
      ],
      "stateMutability": "view",
      "type": "function"
    },
    {
      "inputs": [
        {
          "internalType": "uint256",
          "name": "tokenId",
          "type": "uint256"
        }
      ],
      "name": "getApproved",
      "outputs": [
        {
          "internalType": "address",
          "name": "",
          "type": "address"
        }
      ],
      "stateMutability": "view",
      "type": "function"
    },
    {
      "inputs": [
        {
          "internalType": "address",
          "name": "owner",
          "type": "address"
        },
        {
          "internalType": "address",
          "name": "operator",
          "type": "address"
        }
      ],
      "name": "isApprovedForAll",
      "outputs": [
        {
          "internalType": "bool",
          "name": "",
          "type": "bool"
        }
      ],
      "stateMutability": "view",
      "type": "function"
    },
    {
      "inputs": [
        {
          "internalType": "address",
          "name": "to",
          "type": "address"
        },
        {
          "internalType": "string",
          "name": "metadataURI",
          "type": "string"
        }
      ],
      "name": "mintTicket",
      "outputs": [
        {
          "internalType": "uint256",
          "name": "",
          "type": "uint256"
        }
      ],
      "stateMutability": "nonpayable",
      "type": "function"
    },
    {
      "inputs": [],
      "name": "name",
      "outputs": [
        {
          "internalType": "string",
          "name": "",
          "type": "string"
        }
      ],
      "stateMutability": "view",
      "type": "function"
    },
    {
      "inputs": [],
      "name": "owner",
      "outputs": [
        {
          "internalType": "address",
          "name": "",
          "type": "address"
        }
      ],
      "stateMutability": "view",
      "type": "function"
    },
    {
      "inputs": [
        {
          "internalType": "uint256",
          "name": "tokenId",
          "type": "uint256"
        }
      ],
      "name": "ownerOf",
      "outputs": [
        {
          "internalType": "address",
          "name": "",
          "type": "address"
        }
      ],
      "stateMutability": "view",
      "type": "function"
    },
    {
      "inputs": [],
      "name": "renounceOwnership",
      "outputs": [],
      "stateMutability": "nonpayable",
      "type": "function"
    },
    {
      "inputs": [
        {
          "internalType": "address",
          "name": "from",
          "type": "address"
        },
        {
          "internalType": "address",
          "name": "to",
          "type": "address"
        },
        {
          "internalType": "uint256",
          "name": "tokenId",
          "type": "uint256"
        }
      ],
      "name": "safeTransferFrom",
      "outputs": [],
      "stateMutability": "nonpayable",
      "type": "function"
    },
    {
      "inputs": [
        {
          "internalType": "address",
          "name": "from",
          "type": "address"
        },
        {
          "internalType": "address",
          "name": "to",
          "type": "address"
        },
        {
          "internalType": "uint256",
          "name": "tokenId",
          "type": "uint256"
        },
        {
          "internalType": "bytes",
          "name": "data",
          "type": "bytes"
        }
      ],
      "name": "safeTransferFrom",
      "outputs": [],
      "stateMutability": "nonpayable",
      "type": "function"
    },
    {
      "inputs": [
        {
          "internalType": "address",
          "name": "operator",
          "type": "address"
        },
        {
          "internalType": "bool",
          "name": "approved",
          "type": "bool"
        }
      ],
      "name": "setApprovalForAll",
      "outputs": [],
      "stateMutability": "nonpayable",
      "type": "function"
    },
    {
      "inputs": [
        {
          "internalType": "bytes4",
          "name": "interfaceId",
          "type": "bytes4"
        }
      ],
      "name": "supportsInterface",
      "outputs": [
        {
          "internalType": "bool",
          "name": "",
          "type": "bool"
        }
      ],
      "stateMutability": "view",
      "type": "function"
    },
    {
      "inputs": [],
      "name": "symbol",
      "outputs": [
        {
          "internalType": "string",
          "name": "",
          "type": "string"
        }
      ],
      "stateMutability": "view",
      "type": "function"
    },
    {
      "inputs": [
        {
          "internalType": "uint256",
          "name": "tokenId",
          "type": "uint256"
        }
      ],
      "name": "tokenURI",
      "outputs": [
        {
          "internalType": "string",
          "name": "",
          "type": "string"
        }
      ],
      "stateMutability": "view",
      "type": "function"
    },
    {
      "inputs": [
        {
          "internalType": "address",
          "name": "from",
          "type": "address"
        },
        {
          "internalType": "address",
          "name": "to",
          "type": "address"
        },
        {
          "internalType": "uint256",
          "name": "tokenId",
          "type": "uint256"
        }
      ],
      "name": "transferFrom",
      "outputs": [],
      "stateMutability": "nonpayable",
      "type": "function"
    },
    {
      "inputs": [
        {
          "internalType": "address",
          "name": "newOwner",
          "type": "address"
        }
      ],
      "name": "transferOwnership",
      "outputs": [],
      "stateMutability": "nonpayable",
      "type": "function"
    }
  ],
  "bytecode": "0x60806040523480156200001157600080fd5b50604051620017d1380380620017d18339810160408190526200003491620001b2565b8083836000620000458382620002ce565b506001620000548282620002ce565b5050506001600160a01b0381166200008657604051631e4fbdf760e01b81526000600482015260240160405180910390fd5b62000091816200009b565b505050506200039a565b600780546001600160a01b038381166001600160a01b0319831681179093556040519116919082907f8be0079c531659141344cd1fd0a4f28419497f9722a3daafe3b4186f6b6457e090600090a35050565b634e487b7160e01b600052604160045260246000fd5b600082601f8301126200011557600080fd5b81516001600160401b0380821115620001325762000132620000ed565b604051601f8301601f19908116603f011681019082821181831017156200015d576200015d620000ed565b816040528381526020925086838588010111156200017a57600080fd5b600091505b838210156200019e57858201830151818301840152908201906200017f565b600093810190920192909252949350505050565b600080600060608486031215620001c857600080fd5b83516001600160401b0380821115620001e057600080fd5b620001ee8783880162000103565b945060208601519150808211156200020557600080fd5b50620002148682870162000103565b604086015190935090506001600160a01b03811681146200023457600080fd5b809150509250925092565b600181811c908216806200025457607f821691505b6020821081036200027557634e487b7160e01b600052602260045260246000fd5b50919050565b601f821115620002c957600081815260208120601f850160051c81016020861015620002a45750805b601f850160051c820191505b81811015620002c557828155600101620002b0565b5050505b505050565b81516001600160401b03811115620002ea57620002ea620000ed565b6200030281620002fb84546200023f565b846200027b565b602080601f8311600181146200033a5760008415620003215750858301515b600019600386901b1c1916600185901b178555620002c5565b600085815260208120601f198616915b828110156200036b578886015182559484019460019091019084016200034a565b50858210156200038a5787850151600019600388901b60f8161c191681555b5050505050600190811b01905550565b61142780620003aa6000396000f3fe608060405234801561001057600080fd5b506004361061010b5760003560e01c806370a08231116100a2578063a22cb46511610071578063a22cb4651461021b578063b88d4fde1461022e578063c87b56dd14610241578063e985e9c514610254578063f2fde38b1461026757600080fd5b806370a08231146101e7578063715018a6146101fa5780638da5cb5b1461020257806395d89b411461021357600080fd5b806323b872dd116100de57806323b872dd1461018d57806342842e0e146101a05780635388842c146101b35780636352211e146101d457600080fd5b806301ffc9a71461011057806306fdde0314610138578063081812fc1461014d578063095ea7b314610178575b600080fd5b61012361011e366004610ef2565b61027a565b60405190151581526020015b60405180910390f35b6101406102a5565b60405161012f9190610f5f565b61016061015b366004610f72565b610337565b6040516001600160a01b03909116815260200161012f565b61018b610186366004610fa7565b610360565b005b61018b61019b366004610fd1565b61036f565b61018b6101ae366004610fd1565b6103ff565b6101c66101c1366004611099565b61041f565b60405190815260200161012f565b6101606101e2366004610f72565b61045b565b6101c66101f53660046110fb565b610466565b61018b6104ae565b6007546001600160a01b0316610160565b6101406104c2565b61018b610229366004611116565b6104d1565b61018b61023c366004611152565b6104dc565b61014061024f366004610f72565b6104f4565b6101236102623660046111ce565b610605565b61018b6102753660046110fb565b610633565b60006001600160e01b03198216632483248360e11b148061029f575061029f82610671565b92915050565b6060600080546102b490611201565b80601f01602080910402602001604051908101604052809291908181526020018280546102e090611201565b801561032d5780601f106103025761010080835404028352916020019161032d565b820191906000526020600020905b81548152906001019060200180831161031057829003601f168201915b5050505050905090565b6000610342826106c1565b506000828152600460205260409020546001600160a01b031661029f565b61036b8282336106fa565b5050565b6001600160a01b03821661039e57604051633250574960e11b8152600060048201526024015b60405180910390fd5b60006103ab838333610707565b9050836001600160a01b0316816001600160a01b0316146103f9576040516364283d7b60e01b81526001600160a01b0380861660048301526024820184905282166044820152606401610395565b50505050565b61041a838383604051806020016040528060008152506104dc565b505050565b6000610429610800565b600880546000918261043a8361123b565b91905055905061044a848261082d565b6104548184610847565b9392505050565b600061029f826106c1565b60006001600160a01b038216610492576040516322718ad960e21b815260006004820152602401610395565b506001600160a01b031660009081526003602052604090205490565b6104b6610800565b6104c06000610897565b565b6060600180546102b490611201565b61036b3383836108e9565b6104e784848461036f565b6103f93385858585610988565b60606104ff826106c1565b506000828152600660205260408120805461051990611201565b80601f016020809104026020016040519081016040528092919081815260200182805461054590611201565b80156105925780601f1061056757610100808354040283529160200191610592565b820191906000526020600020905b81548152906001019060200180831161057557829003601f168201915b5050505050905060006105b060408051602081019091526000815290565b905080516000036105c2575092915050565b8151156105f45780826040516020016105dc929190611262565b60405160208183030381529060405292505050919050565b6105fd84610ab3565b949350505050565b6001600160a01b03918216600090815260056020908152604080832093909416825291909152205460ff1690565b61063b610800565b6001600160a01b03811661066557604051631e4fbdf760e01b815260006004820152602401610395565b61066e81610897565b50565b60006001600160e01b031982166380ac58cd60e01b14806106a257506001600160e01b03198216635b5e139f60e01b145b8061029f57506301ffc9a760e01b6001600160e01b031983161461029f565b6000818152600260205260408120546001600160a01b03168061029f57604051637e27328960e01b815260048101849052602401610395565b61041a8383836001610b27565b6000828152600260205260408120546001600160a01b039081169083161561073457610734818486610c2d565b6001600160a01b0381161561077257610751600085600080610b27565b6001600160a01b038116600090815260036020526040902080546000190190555b6001600160a01b038516156107a1576001600160a01b0385166000908152600360205260409020805460010190555b60008481526002602052604080822080546001600160a01b0319166001600160a01b0389811691821790925591518793918516917fddf252ad1be2c89b69c2b068fc378daa952ba7f163c4a11628f55a4df523b3ef91a4949350505050565b6007546001600160a01b031633146104c05760405163118cdaa760e01b8152336004820152602401610395565b61036b828260405180602001604052806000815250610c91565b600082815260066020526040902061085f82826112d7565b506040518281527ff8e1a15aba9398e019f0b49df1a4fde98ee17ae345cb5f6b5e2c27f5033e8ce79060200160405180910390a15050565b600780546001600160a01b038381166001600160a01b0319831681179093556040519116919082907f8be0079c531659141344cd1fd0a4f28419497f9722a3daafe3b4186f6b6457e090600090a35050565b6001600160a01b03821661091b57604051630b61174360e31b81526001600160a01b0383166004820152602401610395565b6001600160a01b03838116600081815260056020908152604080832094871680845294825291829020805460ff191686151590811790915591519182527f17307eab39ab6107e8899845ad3d59bd9653f200f220920489ca2b5937696c31910160405180910390a3505050565b6001600160a01b0383163b15610aac57604051630a85bd0160e11b81526001600160a01b0384169063150b7a02906109ca908890889087908790600401611397565b6020604051808303816000875af1925050508015610a05575060408051601f3d908101601f19168201909252610a02918101906113d4565b60015b610a6e573d808015610a33576040519150601f19603f3d011682016040523d82523d6000602084013e610a38565b606091505b508051600003610a6657604051633250574960e11b81526001600160a01b0385166004820152602401610395565b805181602001fd5b6001600160e01b03198116630a85bd0160e11b14610aaa57604051633250574960e11b81526001600160a01b0385166004820152602401610395565b505b5050505050565b6060610abe826106c1565b506000610ad660408051602081019091526000815290565b90506000815111610af65760405180602001604052806000815250610454565b80610b0084610ca9565b604051602001610b11929190611262565b6040516020818303038152906040529392505050565b8080610b3b57506001600160a01b03821615155b15610bfd576000610b4b846106c1565b90506001600160a01b03831615801590610b775750826001600160a01b0316816001600160a01b031614155b8015610b8a5750610b888184610605565b155b15610bb35760405163a9fbf51f60e01b81526001600160a01b0384166004820152602401610395565b8115610bfb5783856001600160a01b0316826001600160a01b03167f8c5be1e5ebec7d5bd14f71427d1e84f3dd0314c0f7b2291e5b200ac8c7c3b92560405160405180910390a45b505b5050600090815260046020526040902080546001600160a01b0319166001600160a01b0392909216919091179055565b610c38838383610d3c565b61041a576001600160a01b038316610c6657604051637e27328960e01b815260048101829052602401610395565b60405163177e802f60e01b81526001600160a01b038316600482015260248101829052604401610395565b610c9b8383610d9f565b61041a336000858585610988565b60606000610cb683610e04565b600101905060008167ffffffffffffffff811115610cd657610cd661100d565b6040519080825280601f01601f191660200182016040528015610d00576020820181803683370190505b5090508181016020015b600019016f181899199a1a9b1b9c1cb0b131b232b360811b600a86061a8153600a8504945084610d0a57509392505050565b60006001600160a01b038316158015906105fd5750826001600160a01b0316846001600160a01b03161480610d765750610d768484610605565b806105fd5750506000908152600460205260409020546001600160a01b03908116911614919050565b6001600160a01b038216610dc957604051633250574960e11b815260006004820152602401610395565b6000610dd783836000610707565b90506001600160a01b0381161561041a576040516339e3563760e11b815260006004820152602401610395565b60008072184f03e93ff9f4daa797ed6e38ed64bf6a1f0160401b8310610e435772184f03e93ff9f4daa797ed6e38ed64bf6a1f0160401b830492506040015b6d04ee2d6d415b85acef81000000008310610e6f576d04ee2d6d415b85acef8100000000830492506020015b662386f26fc100008310610e8d57662386f26fc10000830492506010015b6305f5e1008310610ea5576305f5e100830492506008015b6127108310610eb957612710830492506004015b60648310610ecb576064830492506002015b600a831061029f5760010192915050565b6001600160e01b03198116811461066e57600080fd5b600060208284031215610f0457600080fd5b813561045481610edc565b60005b83811015610f2a578181015183820152602001610f12565b50506000910152565b60008151808452610f4b816020860160208601610f0f565b601f01601f19169290920160200192915050565b6020815260006104546020830184610f33565b600060208284031215610f8457600080fd5b5035919050565b80356001600160a01b0381168114610fa257600080fd5b919050565b60008060408385031215610fba57600080fd5b610fc383610f8b565b946020939093013593505050565b600080600060608486031215610fe657600080fd5b610fef84610f8b565b9250610ffd60208501610f8b565b9150604084013590509250925092565b634e487b7160e01b600052604160045260246000fd5b600067ffffffffffffffff8084111561103e5761103e61100d565b604051601f8501601f19908116603f011681019082821181831017156110665761106661100d565b8160405280935085815286868601111561107f57600080fd5b858560208301376000602087830101525050509392505050565b600080604083850312156110ac57600080fd5b6110b583610f8b565b9150602083013567ffffffffffffffff8111156110d157600080fd5b8301601f810185136110e257600080fd5b6110f185823560208401611023565b9150509250929050565b60006020828403121561110d57600080fd5b61045482610f8b565b6000806040838503121561112957600080fd5b61113283610f8b565b91506020830135801515811461114757600080fd5b809150509250929050565b6000806000806080858703121561116857600080fd5b61117185610f8b565b935061117f60208601610f8b565b925060408501359150606085013567ffffffffffffffff8111156111a257600080fd5b8501601f810187136111b357600080fd5b6111c287823560208401611023565b91505092959194509250565b600080604083850312156111e157600080fd5b6111ea83610f8b565b91506111f860208401610f8b565b90509250929050565b600181811c9082168061121557607f821691505b60208210810361123557634e487b7160e01b600052602260045260246000fd5b50919050565b60006001820161125b57634e487b7160e01b600052601160045260246000fd5b5060010190565b60008351611274818460208801610f0f565b835190830190611288818360208801610f0f565b01949350505050565b601f82111561041a57600081815260208120601f850160051c810160208610156112b85750805b601f850160051c820191505b81811015610aaa578281556001016112c4565b815167ffffffffffffffff8111156112f1576112f161100d565b611305816112ff8454611201565b84611291565b602080601f83116001811461133a57600084156113225750858301515b600019600386901b1c1916600185901b178555610aaa565b600085815260208120601f198616915b828110156113695788860151825594840194600190910190840161134a565b50858210156113875787850151600019600388901b60f8161c191681555b5050505050600190811b01905550565b6001600160a01b03858116825284166020820152604081018390526080606082018190526000906113ca90830184610f33565b9695505050505050565b6000602082840312156113e657600080fd5b815161045481610edc56fea2646970667358221220422646eea33825e4bdfc813f4dcaaa33abac3338bfe472e3bc19514fc17a342964736f6c63430008140033",
  "linkReferences": {},
  "deployedLinkReferences": {}
}